{
  "_format": "hh-sol-artifact-1",
  "contractName": "Fellas",
  "sourceName": "contracts/Fellas.sol",
  "abi": [
    {
      "inputs": [
        {
          "internalType": "uint256",
          "name": "_tokenPrice",
          "type": "uint256"
        },
        {
          "internalType": "uint256",
          "name": "_maxSupply",
          "type": "uint256"
        },
        {
          "internalType": "string",
          "name": "baseURI_",
          "type": "string"
        }
      ],
      "stateMutability": "nonpayable",
      "type": "constructor"
    },
    {
      "anonymous": false,
      "inputs": [
        {
          "indexed": true,
          "internalType": "address",
          "name": "owner",
          "type": "address"
        },
        {
          "indexed": true,
          "internalType": "address",
          "name": "approved",
          "type": "address"
        },
        {
          "indexed": true,
          "internalType": "uint256",
          "name": "tokenId",
          "type": "uint256"
        }
      ],
      "name": "Approval",
      "type": "event"
    },
    {
      "anonymous": false,
      "inputs": [
        {
          "indexed": true,
          "internalType": "address",
          "name": "owner",
          "type": "address"
        },
        {
          "indexed": true,
          "internalType": "address",
          "name": "operator",
          "type": "address"
        },
        {
          "indexed": false,
          "internalType": "bool",
          "name": "approved",
          "type": "bool"
        }
      ],
      "name": "ApprovalForAll",
      "type": "event"
    },
    {
      "anonymous": false,
      "inputs": [
        {
          "indexed": true,
          "internalType": "address",
          "name": "previousOwner",
          "type": "address"
        },
        {
          "indexed": true,
          "internalType": "address",
          "name": "newOwner",
          "type": "address"
        }
      ],
      "name": "OwnershipTransferred",
      "type": "event"
    },
    {
      "anonymous": false,
      "inputs": [
        {
          "indexed": true,
          "internalType": "address",
          "name": "from",
          "type": "address"
        },
        {
          "indexed": true,
          "internalType": "address",
          "name": "to",
          "type": "address"
        },
        {
          "indexed": true,
          "internalType": "uint256",
          "name": "tokenId",
          "type": "uint256"
        }
      ],
      "name": "Transfer",
      "type": "event"
    },
    {
      "inputs": [
        {
          "internalType": "address",
          "name": "to",
          "type": "address"
        },
        {
          "internalType": "uint256",
          "name": "tokenId",
          "type": "uint256"
        }
      ],
      "name": "approve",
      "outputs": [],
      "stateMutability": "nonpayable",
      "type": "function"
    },
    {
      "inputs": [
        {
          "internalType": "address",
          "name": "owner",
          "type": "address"
        }
      ],
      "name": "balanceOf",
      "outputs": [
        {
          "internalType": "uint256",
          "name": "",
          "type": "uint256"
        }
      ],
      "stateMutability": "view",
      "type": "function"
    },
    {
      "inputs": [
        {
          "internalType": "uint256",
          "name": "tokenId",
          "type": "uint256"
        }
      ],
      "name": "getApproved",
      "outputs": [
        {
          "internalType": "address",
          "name": "",
          "type": "address"
        }
      ],
      "stateMutability": "view",
      "type": "function"
    },
    {
      "inputs": [
        {
          "internalType": "address",
          "name": "owner",
          "type": "address"
        },
        {
          "internalType": "address",
          "name": "operator",
          "type": "address"
        }
      ],
      "name": "isApprovedForAll",
      "outputs": [
        {
          "internalType": "bool",
          "name": "",
          "type": "bool"
        }
      ],
      "stateMutability": "view",
      "type": "function"
    },
    {
      "inputs": [],
      "name": "maxSupply",
      "outputs": [
        {
          "internalType": "uint256",
          "name": "",
          "type": "uint256"
        }
      ],
      "stateMutability": "view",
      "type": "function"
    },
    {
      "inputs": [],
      "name": "mint",
      "outputs": [],
      "stateMutability": "payable",
      "type": "function"
    },
    {
      "inputs": [],
      "name": "name",
      "outputs": [
        {
          "internalType": "string",
          "name": "",
          "type": "string"
        }
      ],
      "stateMutability": "view",
      "type": "function"
    },
    {
      "inputs": [],
      "name": "owner",
      "outputs": [
        {
          "internalType": "address",
          "name": "",
          "type": "address"
        }
      ],
      "stateMutability": "view",
      "type": "function"
    },
    {
      "inputs": [
        {
          "internalType": "uint256",
          "name": "tokenId",
          "type": "uint256"
        }
      ],
      "name": "ownerOf",
      "outputs": [
        {
          "internalType": "address",
          "name": "",
          "type": "address"
        }
      ],
      "stateMutability": "view",
      "type": "function"
    },
    {
      "inputs": [],
      "name": "renounceOwnership",
      "outputs": [],
      "stateMutability": "nonpayable",
      "type": "function"
    },
    {
      "inputs": [
        {
          "internalType": "address",
          "name": "from",
          "type": "address"
        },
        {
          "internalType": "address",
          "name": "to",
          "type": "address"
        },
        {
          "internalType": "uint256",
          "name": "tokenId",
          "type": "uint256"
        }
      ],
      "name": "safeTransferFrom",
      "outputs": [],
      "stateMutability": "nonpayable",
      "type": "function"
    },
    {
      "inputs": [
        {
          "internalType": "address",
          "name": "from",
          "type": "address"
        },
        {
          "internalType": "address",
          "name": "to",
          "type": "address"
        },
        {
          "internalType": "uint256",
          "name": "tokenId",
          "type": "uint256"
        },
        {
          "internalType": "bytes",
          "name": "data",
          "type": "bytes"
        }
      ],
      "name": "safeTransferFrom",
      "outputs": [],
      "stateMutability": "nonpayable",
      "type": "function"
    },
    {
      "inputs": [
        {
          "internalType": "address",
          "name": "operator",
          "type": "address"
        },
        {
          "internalType": "bool",
          "name": "approved",
          "type": "bool"
        }
      ],
      "name": "setApprovalForAll",
      "outputs": [],
      "stateMutability": "nonpayable",
      "type": "function"
    },
    {
      "inputs": [
        {
          "internalType": "string",
          "name": "baseURI_",
          "type": "string"
        }
      ],
      "name": "setBaseURI",
      "outputs": [],
      "stateMutability": "nonpayable",
      "type": "function"
    },
    {
      "inputs": [
        {
          "internalType": "bytes4",
          "name": "interfaceId",
          "type": "bytes4"
        }
      ],
      "name": "supportsInterface",
      "outputs": [
        {
          "internalType": "bool",
          "name": "",
          "type": "bool"
        }
      ],
      "stateMutability": "view",
      "type": "function"
    },
    {
      "inputs": [],
      "name": "symbol",
      "outputs": [
        {
          "internalType": "string",
          "name": "",
          "type": "string"
        }
      ],
      "stateMutability": "view",
      "type": "function"
    },
    {
      "inputs": [],
      "name": "tokenCount",
      "outputs": [
        {
          "internalType": "uint256",
          "name": "",
          "type": "uint256"
        }
      ],
      "stateMutability": "view",
      "type": "function"
    },
    {
      "inputs": [],
      "name": "tokenPrice",
      "outputs": [
        {
          "internalType": "uint256",
          "name": "",
          "type": "uint256"
        }
      ],
      "stateMutability": "view",
      "type": "function"
    },
    {
      "inputs": [
        {
          "internalType": "uint256",
          "name": "tokenId",
          "type": "uint256"
        }
      ],
      "name": "tokenURI",
      "outputs": [
        {
          "internalType": "string",
          "name": "",
          "type": "string"
        }
      ],
      "stateMutability": "view",
      "type": "function"
    },
    {
      "inputs": [
        {
          "internalType": "address",
          "name": "from",
          "type": "address"
        },
        {
          "internalType": "address",
          "name": "to",
          "type": "address"
        },
        {
          "internalType": "uint256",
          "name": "tokenId",
          "type": "uint256"
        }
      ],
      "name": "transferFrom",
      "outputs": [],
      "stateMutability": "nonpayable",
      "type": "function"
    },
    {
      "inputs": [
        {
          "internalType": "address",
          "name": "newOwner",
          "type": "address"
        }
      ],
      "name": "transferOwnership",
      "outputs": [],
      "stateMutability": "nonpayable",
      "type": "function"
    },
    {
      "inputs": [],
      "name": "withdraw",
      "outputs": [],
      "stateMutability": "nonpayable",
      "type": "function"
    }
  ],
  "bytecode": "0x60806040523480156200001157600080fd5b506040516200371b3803806200371b8339818101604052810190620000379190620003ae565b6040518060400160405280600681526020017f46656c6c617300000000000000000000000000000000000000000000000000008152506040518060400160405280600381526020017f464c5300000000000000000000000000000000000000000000000000000000008152508160009081620000b491906200066a565b508060019081620000c691906200066a565b505050620000e9620000dd6200011260201b60201c565b6200011a60201b60201c565b816009819055508260078190555080600a90816200010891906200066a565b5050505062000751565b600033905090565b6000600660009054906101000a900473ffffffffffffffffffffffffffffffffffffffff16905081600660006101000a81548173ffffffffffffffffffffffffffffffffffffffff021916908373ffffffffffffffffffffffffffffffffffffffff1602179055508173ffffffffffffffffffffffffffffffffffffffff168173ffffffffffffffffffffffffffffffffffffffff167f8be0079c531659141344cd1fd0a4f28419497f9722a3daafe3b4186f6b6457e060405160405180910390a35050565b6000604051905090565b600080fd5b600080fd5b6000819050919050565b6200020981620001f4565b81146200021557600080fd5b50565b6000815190506200022981620001fe565b92915050565b600080fd5b600080fd5b6000601f19601f8301169050919050565b7f4e487b7100000000000000000000000000000000000000000000000000000000600052604160045260246000fd5b620002848262000239565b810181811067ffffffffffffffff82111715620002a657620002a56200024a565b5b80604052505050565b6000620002bb620001e0565b9050620002c9828262000279565b919050565b600067ffffffffffffffff821115620002ec57620002eb6200024a565b5b620002f78262000239565b9050602081019050919050565b60005b838110156200032457808201518184015260208101905062000307565b60008484015250505050565b6000620003476200034184620002ce565b620002af565b90508281526020810184848401111562000366576200036562000234565b5b6200037384828562000304565b509392505050565b600082601f8301126200039357620003926200022f565b5b8151620003a584826020860162000330565b91505092915050565b600080600060608486031215620003ca57620003c9620001ea565b5b6000620003da8682870162000218565b9350506020620003ed8682870162000218565b925050604084015167ffffffffffffffff811115620004115762000410620001ef565b5b6200041f868287016200037b565b9150509250925092565b600081519050919050565b7f4e487b7100000000000000000000000000000000000000000000000000000000600052602260045260246000fd5b600060028204905060018216806200047c57607f821691505b60208210810362000492576200049162000434565b5b50919050565b60008190508160005260206000209050919050565b60006020601f8301049050919050565b600082821b905092915050565b600060088302620004fc7fffffffffffffffffffffffffffffffffffffffffffffffffffffffffffffffff82620004bd565b620005088683620004bd565b95508019841693508086168417925050509392505050565b6000819050919050565b60006200054b620005456200053f84620001f4565b62000520565b620001f4565b9050919050565b6000819050919050565b62000567836200052a565b6200057f620005768262000552565b848454620004ca565b825550505050565b600090565b6200059662000587565b620005a38184846200055c565b505050565b5b81811015620005cb57620005bf6000826200058c565b600181019050620005a9565b5050565b601f8211156200061a57620005e48162000498565b620005ef84620004ad565b81016020851015620005ff578190505b620006176200060e85620004ad565b830182620005a8565b50505b505050565b600082821c905092915050565b60006200063f600019846008026200061f565b1980831691505092915050565b60006200065a83836200062c565b9150826002028217905092915050565b620006758262000429565b67ffffffffffffffff8111156200069157620006906200024a565b5b6200069d825462000463565b620006aa828285620005cf565b600060209050601f831160018114620006e25760008415620006cd578287015190505b620006d985826200064c565b86555062000749565b601f198416620006f28662000498565b60005b828110156200071c57848901518255600182019150602085019450602081019050620006f5565b868310156200073c578489015162000738601f8916826200062c565b8355505b6001600288020188555050505b505050505050565b612fba80620007616000396000f3fe6080604052600436106101355760003560e01c8063715018a6116100ab578063a22cb4651161006f578063a22cb465146103e1578063b88d4fde1461040a578063c87b56dd14610433578063d5abeb0114610470578063e985e9c51461049b578063f2fde38b146104d857610135565b8063715018a61461031e5780637ff9b596146103355780638da5cb5b1461036057806395d89b411461038b5780639f181b5e146103b657610135565b806323b872dd116100fd57806323b872dd146102125780633ccfd60b1461023b57806342842e0e1461025257806355f804b31461027b5780636352211e146102a457806370a08231146102e157610135565b806301ffc9a71461013a57806306fdde0314610177578063081812fc146101a2578063095ea7b3146101df5780631249c58b14610208575b600080fd5b34801561014657600080fd5b50610161600480360381019061015c9190611d01565b610501565b60405161016e9190611d49565b60405180910390f35b34801561018357600080fd5b5061018c6105e3565b6040516101999190611df4565b60405180910390f35b3480156101ae57600080fd5b506101c960048036038101906101c49190611e4c565b610675565b6040516101d69190611eba565b60405180910390f35b3480156101eb57600080fd5b5061020660048036038101906102019190611f01565b6106bb565b005b6102106107d2565b005b34801561021e57600080fd5b5061023960048036038101906102349190611f41565b61087f565b005b34801561024757600080fd5b506102506108df565b005b34801561025e57600080fd5b5061027960048036038101906102749190611f41565b610930565b005b34801561028757600080fd5b506102a2600480360381019061029d91906120c9565b610950565b005b3480156102b057600080fd5b506102cb60048036038101906102c69190611e4c565b61096b565b6040516102d89190611eba565b60405180910390f35b3480156102ed57600080fd5b5061030860048036038101906103039190612112565b6109f1565b604051610315919061214e565b60405180910390f35b34801561032a57600080fd5b50610333610aa8565b005b34801561034157600080fd5b5061034a610abc565b604051610357919061214e565b60405180910390f35b34801561036c57600080fd5b50610375610ac2565b6040516103829190611eba565b60405180910390f35b34801561039757600080fd5b506103a0610aec565b6040516103ad9190611df4565b60405180910390f35b3480156103c257600080fd5b506103cb610b7e565b6040516103d8919061214e565b60405180910390f35b3480156103ed57600080fd5b5061040860048036038101906104039190612195565b610b84565b005b34801561041657600080fd5b50610431600480360381019061042c9190612276565b610b9a565b005b34801561043f57600080fd5b5061045a60048036038101906104559190611e4c565b610bfc565b6040516104679190611df4565b60405180910390f35b34801561047c57600080fd5b50610485610c64565b604051610492919061214e565b60405180910390f35b3480156104a757600080fd5b506104c260048036038101906104bd91906122f9565b610c6a565b6040516104cf9190611d49565b60405180910390f35b3480156104e457600080fd5b506104ff60048036038101906104fa9190612112565b610cfe565b005b60007f80ac58cd000000000000000000000000000000000000000000000000000000007bffffffffffffffffffffffffffffffffffffffffffffffffffffffff1916827bffffffffffffffffffffffffffffffffffffffffffffffffffffffff191614806105cc57507f5b5e139f000000000000000000000000000000000000000000000000000000007bffffffffffffffffffffffffffffffffffffffffffffffffffffffff1916827bffffffffffffffffffffffffffffffffffffffffffffffffffffffff1916145b806105dc57506105db82610d81565b5b9050919050565b6060600080546105f290612368565b80601f016020809104026020016040519081016040528092919081815260200182805461061e90612368565b801561066b5780601f106106405761010080835404028352916020019161066b565b820191906000526020600020905b81548152906001019060200180831161064e57829003601f168201915b5050505050905090565b600061068082610deb565b6004600083815260200190815260200160002060009054906101000a900473ffffffffffffffffffffffffffffffffffffffff169050919050565b60006106c68261096b565b90508073ffffffffffffffffffffffffffffffffffffffff168373ffffffffffffffffffffffffffffffffffffffff1603610736576040517f08c379a000000000000000000000000000000000000000000000000000000000815260040161072d9061240b565b60405180910390fd5b8073ffffffffffffffffffffffffffffffffffffffff16610755610e36565b73ffffffffffffffffffffffffffffffffffffffff16148061078457506107838161077e610e36565b610c6a565b5b6107c3576040517f08c379a00000000000000000000000000000000000000000000000000000000081526004016107ba9061249d565b60405180910390fd5b6107cd8383610e3e565b505050565b600754341015610817576040517f08c379a000000000000000000000000000000000000000000000000000000000815260040161080e90612509565b60405180910390fd5b6009546008541061085d576040517f08c379a000000000000000000000000000000000000000000000000000000000815260040161085490612575565b60405180910390fd5b61087d3360086000815480929190610874906125c4565b91905055610ef7565b565b61089061088a610e36565b82611114565b6108cf576040517f08c379a00000000000000000000000000000000000000000000000000000000081526004016108c69061267e565b60405180910390fd5b6108da8383836111a9565b505050565b6108e76114a2565b3373ffffffffffffffffffffffffffffffffffffffff166108fc479081150290604051600060405180830381858888f1935050505015801561092d573d6000803e3d6000fd5b50565b61094b83838360405180602001604052806000815250610b9a565b505050565b6109586114a2565b80600a9081610967919061284a565b5050565b60008061097783611520565b9050600073ffffffffffffffffffffffffffffffffffffffff168173ffffffffffffffffffffffffffffffffffffffff16036109e8576040517f08c379a00000000000000000000000000000000000000000000000000000000081526004016109df90612968565b60405180910390fd5b80915050919050565b60008073ffffffffffffffffffffffffffffffffffffffff168273ffffffffffffffffffffffffffffffffffffffff1603610a61576040517f08c379a0000000000000000000000000000000000000000000000000000000008152600401610a58906129fa565b60405180910390fd5b600360008373ffffffffffffffffffffffffffffffffffffffff1673ffffffffffffffffffffffffffffffffffffffff168152602001908152602001600020549050919050565b610ab06114a2565b610aba600061155d565b565b60075481565b6000600660009054906101000a900473ffffffffffffffffffffffffffffffffffffffff16905090565b606060018054610afb90612368565b80601f0160208091040260200160405190810160405280929190818152602001828054610b2790612368565b8015610b745780601f10610b4957610100808354040283529160200191610b74565b820191906000526020600020905b815481529060010190602001808311610b5757829003601f168201915b5050505050905090565b60085481565b610b96610b8f610e36565b8383611623565b5050565b610bab610ba5610e36565b83611114565b610bea576040517f08c379a0000000000000000000000000000000000000000000000000000000008152600401610be19061267e565b60405180910390fd5b610bf68484848461178f565b50505050565b6060610c0782610deb565b6000610c116117eb565b90506000815111610c315760405180602001604052806000815250610c5c565b80610c3b8461187d565b604051602001610c4c929190612a56565b6040516020818303038152906040525b915050919050565b60095481565b6000600560008473ffffffffffffffffffffffffffffffffffffffff1673ffffffffffffffffffffffffffffffffffffffff16815260200190815260200160002060008373ffffffffffffffffffffffffffffffffffffffff1673ffffffffffffffffffffffffffffffffffffffff16815260200190815260200160002060009054906101000a900460ff16905092915050565b610d066114a2565b600073ffffffffffffffffffffffffffffffffffffffff168173ffffffffffffffffffffffffffffffffffffffff1603610d75576040517f08c379a0000000000000000000000000000000000000000000000000000000008152600401610d6c90612aec565b60405180910390fd5b610d7e8161155d565b50565b60007f01ffc9a7000000000000000000000000000000000000000000000000000000007bffffffffffffffffffffffffffffffffffffffffffffffffffffffff1916827bffffffffffffffffffffffffffffffffffffffffffffffffffffffff1916149050919050565b610df48161194b565b610e33576040517f08c379a0000000000000000000000000000000000000000000000000000000008152600401610e2a90612968565b60405180910390fd5b50565b600033905090565b816004600083815260200190815260200160002060006101000a81548173ffffffffffffffffffffffffffffffffffffffff021916908373ffffffffffffffffffffffffffffffffffffffff160217905550808273ffffffffffffffffffffffffffffffffffffffff16610eb18361096b565b73ffffffffffffffffffffffffffffffffffffffff167f8c5be1e5ebec7d5bd14f71427d1e84f3dd0314c0f7b2291e5b200ac8c7c3b92560405160405180910390a45050565b600073ffffffffffffffffffffffffffffffffffffffff168273ffffffffffffffffffffffffffffffffffffffff1603610f66576040517f08c379a0000000000000000000000000000000000000000000000000000000008152600401610f5d90612b58565b60405180910390fd5b610f6f8161194b565b15610faf576040517f08c379a0000000000000000000000000000000000000000000000000000000008152600401610fa690612bc4565b60405180910390fd5b610fbd60008383600161198c565b610fc68161194b565b15611006576040517f08c379a0000000000000000000000000000000000000000000000000000000008152600401610ffd90612bc4565b60405180910390fd5b6001600360008473ffffffffffffffffffffffffffffffffffffffff1673ffffffffffffffffffffffffffffffffffffffff16815260200190815260200160002060008282540192505081905550816002600083815260200190815260200160002060006101000a81548173ffffffffffffffffffffffffffffffffffffffff021916908373ffffffffffffffffffffffffffffffffffffffff160217905550808273ffffffffffffffffffffffffffffffffffffffff16600073ffffffffffffffffffffffffffffffffffffffff167fddf252ad1be2c89b69c2b068fc378daa952ba7f163c4a11628f55a4df523b3ef60405160405180910390a4611110600083836001611992565b5050565b6000806111208361096b565b90508073ffffffffffffffffffffffffffffffffffffffff168473ffffffffffffffffffffffffffffffffffffffff16148061116257506111618185610c6a565b5b806111a057508373ffffffffffffffffffffffffffffffffffffffff1661118884610675565b73ffffffffffffffffffffffffffffffffffffffff16145b91505092915050565b8273ffffffffffffffffffffffffffffffffffffffff166111c98261096b565b73ffffffffffffffffffffffffffffffffffffffff161461121f576040517f08c379a000000000000000000000000000000000000000000000000000000000815260040161121690612c56565b60405180910390fd5b600073ffffffffffffffffffffffffffffffffffffffff168273ffffffffffffffffffffffffffffffffffffffff160361128e576040517f08c379a000000000000000000000000000000000000000000000000000000000815260040161128590612ce8565b60405180910390fd5b61129b838383600161198c565b8273ffffffffffffffffffffffffffffffffffffffff166112bb8261096b565b73ffffffffffffffffffffffffffffffffffffffff1614611311576040517f08c379a000000000000000000000000000000000000000000000000000000000815260040161130890612c56565b60405180910390fd5b6004600082815260200190815260200160002060006101000a81549073ffffffffffffffffffffffffffffffffffffffff02191690556001600360008573ffffffffffffffffffffffffffffffffffffffff1673ffffffffffffffffffffffffffffffffffffffff168152602001908152602001600020600082825403925050819055506001600360008473ffffffffffffffffffffffffffffffffffffffff1673ffffffffffffffffffffffffffffffffffffffff16815260200190815260200160002060008282540192505081905550816002600083815260200190815260200160002060006101000a81548173ffffffffffffffffffffffffffffffffffffffff021916908373ffffffffffffffffffffffffffffffffffffffff160217905550808273ffffffffffffffffffffffffffffffffffffffff168473ffffffffffffffffffffffffffffffffffffffff167fddf252ad1be2c89b69c2b068fc378daa952ba7f163c4a11628f55a4df523b3ef60405160405180910390a461149d8383836001611992565b505050565b6114aa610e36565b73ffffffffffffffffffffffffffffffffffffffff166114c8610ac2565b73ffffffffffffffffffffffffffffffffffffffff161461151e576040517f08c379a000000000000000000000000000000000000000000000000000000000815260040161151590612d54565b60405180910390fd5b565b60006002600083815260200190815260200160002060009054906101000a900473ffffffffffffffffffffffffffffffffffffffff169050919050565b6000600660009054906101000a900473ffffffffffffffffffffffffffffffffffffffff16905081600660006101000a81548173ffffffffffffffffffffffffffffffffffffffff021916908373ffffffffffffffffffffffffffffffffffffffff1602179055508173ffffffffffffffffffffffffffffffffffffffff168173ffffffffffffffffffffffffffffffffffffffff167f8be0079c531659141344cd1fd0a4f28419497f9722a3daafe3b4186f6b6457e060405160405180910390a35050565b8173ffffffffffffffffffffffffffffffffffffffff168373ffffffffffffffffffffffffffffffffffffffff1603611691576040517f08c379a000000000000000000000000000000000000000000000000000000000815260040161168890612dc0565b60405180910390fd5b80600560008573ffffffffffffffffffffffffffffffffffffffff1673ffffffffffffffffffffffffffffffffffffffff16815260200190815260200160002060008473ffffffffffffffffffffffffffffffffffffffff1673ffffffffffffffffffffffffffffffffffffffff16815260200190815260200160002060006101000a81548160ff0219169083151502179055508173ffffffffffffffffffffffffffffffffffffffff168373ffffffffffffffffffffffffffffffffffffffff167f17307eab39ab6107e8899845ad3d59bd9653f200f220920489ca2b5937696c31836040516117829190611d49565b60405180910390a3505050565b61179a8484846111a9565b6117a684848484611998565b6117e5576040517f08c379a00000000000000000000000000000000000000000000000000000000081526004016117dc90612e52565b60405180910390fd5b50505050565b6060600a80546117fa90612368565b80601f016020809104026020016040519081016040528092919081815260200182805461182690612368565b80156118735780601f1061184857610100808354040283529160200191611873565b820191906000526020600020905b81548152906001019060200180831161185657829003601f168201915b5050505050905090565b60606000600161188c84611b1f565b01905060008167ffffffffffffffff8111156118ab576118aa611f9e565b5b6040519080825280601f01601f1916602001820160405280156118dd5781602001600182028036833780820191505090505b509050600082602001820190505b600115611940578080600190039150507f3031323334353637383961626364656600000000000000000000000000000000600a86061a8153600a858161193457611933612e72565b5b049450600085036118eb575b819350505050919050565b60008073ffffffffffffffffffffffffffffffffffffffff1661196d83611520565b73ffffffffffffffffffffffffffffffffffffffff1614159050919050565b50505050565b50505050565b60006119b98473ffffffffffffffffffffffffffffffffffffffff16611c72565b15611b12578373ffffffffffffffffffffffffffffffffffffffff1663150b7a026119e2610e36565b8786866040518563ffffffff1660e01b8152600401611a049493929190612ef6565b6020604051808303816000875af1925050508015611a4057506040513d601f19601f82011682018060405250810190611a3d9190612f57565b60015b611ac2573d8060008114611a70576040519150601f19603f3d011682016040523d82523d6000602084013e611a75565b606091505b506000815103611aba576040517f08c379a0000000000000000000000000000000000000000000000000000000008152600401611ab190612e52565b60405180910390fd5b805181602001fd5b63150b7a0260e01b7bffffffffffffffffffffffffffffffffffffffffffffffffffffffff1916817bffffffffffffffffffffffffffffffffffffffffffffffffffffffff191614915050611b17565b600190505b949350505050565b600080600090507a184f03e93ff9f4daa797ed6e38ed64bf6a1f0100000000000000008310611b7d577a184f03e93ff9f4daa797ed6e38ed64bf6a1f0100000000000000008381611b7357611b72612e72565b5b0492506040810190505b6d04ee2d6d415b85acef81000000008310611bba576d04ee2d6d415b85acef81000000008381611bb057611baf612e72565b5b0492506020810190505b662386f26fc100008310611be957662386f26fc100008381611bdf57611bde612e72565b5b0492506010810190505b6305f5e1008310611c12576305f5e1008381611c0857611c07612e72565b5b0492506008810190505b6127108310611c37576127108381611c2d57611c2c612e72565b5b0492506004810190505b60648310611c5a5760648381611c5057611c4f612e72565b5b0492506002810190505b600a8310611c69576001810190505b80915050919050565b6000808273ffffffffffffffffffffffffffffffffffffffff163b119050919050565b6000604051905090565b600080fd5b600080fd5b60007fffffffff0000000000000000000000000000000000000000000000000000000082169050919050565b611cde81611ca9565b8114611ce957600080fd5b50565b600081359050611cfb81611cd5565b92915050565b600060208284031215611d1757611d16611c9f565b5b6000611d2584828501611cec565b91505092915050565b60008115159050919050565b611d4381611d2e565b82525050565b6000602082019050611d5e6000830184611d3a565b92915050565b600081519050919050565b600082825260208201905092915050565b60005b83811015611d9e578082015181840152602081019050611d83565b60008484015250505050565b6000601f19601f8301169050919050565b6000611dc682611d64565b611dd08185611d6f565b9350611de0818560208601611d80565b611de981611daa565b840191505092915050565b60006020820190508181036000830152611e0e8184611dbb565b905092915050565b6000819050919050565b611e2981611e16565b8114611e3457600080fd5b50565b600081359050611e4681611e20565b92915050565b600060208284031215611e6257611e61611c9f565b5b6000611e7084828501611e37565b91505092915050565b600073ffffffffffffffffffffffffffffffffffffffff82169050919050565b6000611ea482611e79565b9050919050565b611eb481611e99565b82525050565b6000602082019050611ecf6000830184611eab565b92915050565b611ede81611e99565b8114611ee957600080fd5b50565b600081359050611efb81611ed5565b92915050565b60008060408385031215611f1857611f17611c9f565b5b6000611f2685828601611eec565b9250506020611f3785828601611e37565b9150509250929050565b600080600060608486031215611f5a57611f59611c9f565b5b6000611f6886828701611eec565b9350506020611f7986828701611eec565b9250506040611f8a86828701611e37565b9150509250925092565b600080fd5b600080fd5b7f4e487b7100000000000000000000000000000000000000000000000000000000600052604160045260246000fd5b611fd682611daa565b810181811067ffffffffffffffff82111715611ff557611ff4611f9e565b5b80604052505050565b6000612008611c95565b90506120148282611fcd565b919050565b600067ffffffffffffffff82111561203457612033611f9e565b5b61203d82611daa565b9050602081019050919050565b82818337600083830152505050565b600061206c61206784612019565b611ffe565b90508281526020810184848401111561208857612087611f99565b5b61209384828561204a565b509392505050565b600082601f8301126120b0576120af611f94565b5b81356120c0848260208601612059565b91505092915050565b6000602082840312156120df576120de611c9f565b5b600082013567ffffffffffffffff8111156120fd576120fc611ca4565b5b6121098482850161209b565b91505092915050565b60006020828403121561212857612127611c9f565b5b600061213684828501611eec565b91505092915050565b61214881611e16565b82525050565b6000602082019050612163600083018461213f565b92915050565b61217281611d2e565b811461217d57600080fd5b50565b60008135905061218f81612169565b92915050565b600080604083850312156121ac576121ab611c9f565b5b60006121ba85828601611eec565b92505060206121cb85828601612180565b9150509250929050565b600067ffffffffffffffff8211156121f0576121ef611f9e565b5b6121f982611daa565b9050602081019050919050565b6000612219612214846121d5565b611ffe565b90508281526020810184848401111561223557612234611f99565b5b61224084828561204a565b509392505050565b600082601f83011261225d5761225c611f94565b5b813561226d848260208601612206565b91505092915050565b600080600080608085870312156122905761228f611c9f565b5b600061229e87828801611eec565b94505060206122af87828801611eec565b93505060406122c087828801611e37565b925050606085013567ffffffffffffffff8111156122e1576122e0611ca4565b5b6122ed87828801612248565b91505092959194509250565b600080604083850312156123105761230f611c9f565b5b600061231e85828601611eec565b925050602061232f85828601611eec565b9150509250929050565b7f4e487b7100000000000000000000000000000000000000000000000000000000600052602260045260246000fd5b6000600282049050600182168061238057607f821691505b60208210810361239357612392612339565b5b50919050565b7f4552433732313a20617070726f76616c20746f2063757272656e74206f776e6560008201527f7200000000000000000000000000000000000000000000000000000000000000602082015250565b60006123f5602183611d6f565b915061240082612399565b604082019050919050565b60006020820190508181036000830152612424816123e8565b9050919050565b7f4552433732313a20617070726f76652063616c6c6572206973206e6f7420746f60008201527f6b656e206f776e6572206f7220617070726f76656420666f7220616c6c000000602082015250565b6000612487603d83611d6f565b91506124928261242b565b604082019050919050565b600060208201905081810360008301526124b68161247a565b9050919050565b7f746f6b656e20756e646572707269636564000000000000000000000000000000600082015250565b60006124f3601183611d6f565b91506124fe826124bd565b602082019050919050565b60006020820190508181036000830152612522816124e6565b9050919050565b7f6d617820737570706c79206d696e746564000000000000000000000000000000600082015250565b600061255f601183611d6f565b915061256a82612529565b602082019050919050565b6000602082019050818103600083015261258e81612552565b9050919050565b7f4e487b7100000000000000000000000000000000000000000000000000000000600052601160045260246000fd5b60006125cf82611e16565b91507fffffffffffffffffffffffffffffffffffffffffffffffffffffffffffffffff820361260157612600612595565b5b600182019050919050565b7f4552433732313a2063616c6c6572206973206e6f7420746f6b656e206f776e6560008201527f72206f7220617070726f76656400000000000000000000000000000000000000602082015250565b6000612668602d83611d6f565b91506126738261260c565b604082019050919050565b600060208201905081810360008301526126978161265b565b9050919050565b60008190508160005260206000209050919050565b60006020601f8301049050919050565b600082821b905092915050565b6000600883026127007fffffffffffffffffffffffffffffffffffffffffffffffffffffffffffffffff826126c3565b61270a86836126c3565b95508019841693508086168417925050509392505050565b6000819050919050565b600061274761274261273d84611e16565b612722565b611e16565b9050919050565b6000819050919050565b6127618361272c565b61277561276d8261274e565b8484546126d0565b825550505050565b600090565b61278a61277d565b612795818484612758565b505050565b5b818110156127b9576127ae600082612782565b60018101905061279b565b5050565b601f8211156127fe576127cf8161269e565b6127d8846126b3565b810160208510156127e7578190505b6127fb6127f3856126b3565b83018261279a565b50505b505050565b600082821c905092915050565b600061282160001984600802612803565b1980831691505092915050565b600061283a8383612810565b9150826002028217905092915050565b61285382611d64565b67ffffffffffffffff81111561286c5761286b611f9e565b5b6128768254612368565b6128818282856127bd565b600060209050601f8311600181146128b457600084156128a2578287015190505b6128ac858261282e565b865550612914565b601f1984166128c28661269e565b60005b828110156128ea578489015182556001820191506020850194506020810190506128c5565b868310156129075784890151612903601f891682612810565b8355505b6001600288020188555050505b505050505050565b7f4552433732313a20696e76616c696420746f6b656e2049440000000000000000600082015250565b6000612952601883611d6f565b915061295d8261291c565b602082019050919050565b6000602082019050818103600083015261298181612945565b9050919050565b7f4552433732313a2061646472657373207a65726f206973206e6f74206120766160008201527f6c6964206f776e65720000000000000000000000000000000000000000000000602082015250565b60006129e4602983611d6f565b91506129ef82612988565b604082019050919050565b60006020820190508181036000830152612a13816129d7565b9050919050565b600081905092915050565b6000612a3082611d64565b612a3a8185612a1a565b9350612a4a818560208601611d80565b80840191505092915050565b6000612a628285612a25565b9150612a6e8284612a25565b91508190509392505050565b7f4f776e61626c653a206e6577206f776e657220697320746865207a65726f206160008201527f6464726573730000000000000000000000000000000000000000000000000000602082015250565b6000612ad6602683611d6f565b9150612ae182612a7a565b604082019050919050565b60006020820190508181036000830152612b0581612ac9565b9050919050565b7f4552433732313a206d696e7420746f20746865207a65726f2061646472657373600082015250565b6000612b42602083611d6f565b9150612b4d82612b0c565b602082019050919050565b60006020820190508181036000830152612b7181612b35565b9050919050565b7f4552433732313a20746f6b656e20616c7265616479206d696e74656400000000600082015250565b6000612bae601c83611d6f565b9150612bb982612b78565b602082019050919050565b60006020820190508181036000830152612bdd81612ba1565b9050919050565b7f4552433732313a207472616e736665722066726f6d20696e636f72726563742060008201527f6f776e6572000000000000000000000000000000000000000000000000000000602082015250565b6000612c40602583611d6f565b9150612c4b82612be4565b604082019050919050565b60006020820190508181036000830152612c6f81612c33565b9050919050565b7f4552433732313a207472616e7366657220746f20746865207a65726f2061646460008201527f7265737300000000000000000000000000000000000000000000000000000000602082015250565b6000612cd2602483611d6f565b9150612cdd82612c76565b604082019050919050565b60006020820190508181036000830152612d0181612cc5565b9050919050565b7f4f776e61626c653a2063616c6c6572206973206e6f7420746865206f776e6572600082015250565b6000612d3e602083611d6f565b9150612d4982612d08565b602082019050919050565b60006020820190508181036000830152612d6d81612d31565b9050919050565b7f4552433732313a20617070726f766520746f2063616c6c657200000000000000600082015250565b6000612daa601983611d6f565b9150612db582612d74565b602082019050919050565b60006020820190508181036000830152612dd981612d9d565b9050919050565b7f4552433732313a207472616e7366657220746f206e6f6e20455243373231526560008201527f63656976657220696d706c656d656e7465720000000000000000000000000000602082015250565b6000612e3c603283611d6f565b9150612e4782612de0565b604082019050919050565b60006020820190508181036000830152612e6b81612e2f565b9050919050565b7f4e487b7100000000000000000000000000000000000000000000000000000000600052601260045260246000fd5b600081519050919050565b600082825260208201905092915050565b6000612ec882612ea1565b612ed28185612eac565b9350612ee2818560208601611d80565b612eeb81611daa565b840191505092915050565b6000608082019050612f0b6000830187611eab565b612f186020830186611eab565b612f25604083018561213f565b8181036060830152612f378184612ebd565b905095945050505050565b600081519050612f5181611cd5565b92915050565b600060208284031215612f6d57612f6c611c9f565b5b6000612f7b84828501612f42565b9150509291505056fea2646970667358221220f81443d1ba203a9974533d21ea56207b691a7a48584b5e9ec310a3d40b69bba164736f6c63430008120033",
  "linkReferences": {},
  "deployedLinkReferences": {}
}